:020000040800F2
:100000000050002099010008E5010008E501000802
:10001000E5010008E5010008E50100080000000016
:10002000000000000000000000000000E5010008E2
:10003000E501000800000000E5010008E5010008F6
:10004000E5010008E5010008E5010008E5010008F8
:10005000E5010008E5010008E5010008E5010008E8
:10006000E5010008E5010008E5010008E5010008D8
:10007000E5010008E5010008E5010008E5010008C8
:10008000E5010008E5010008E5010008E5010008B8
:10009000E5010008E5010008E5010008E5010008A8
:1000A000E5010008E5010008E5010008E501000898
:1000B000E5010008E5010008E5010008E501000888
:1000C000E5010008E5010008E5010008E501000878
:1000D000E5010008E5010008E5010008E501000868
:1000E000E5010008E501000800000000E501000846
:1000F000E5010008E5010008E5010008E501000848
:10010000E5010008E5010008E5010008E501000837
:10011000E5010008E5010008E5010008E501000827
:10012000E5010008E5010008E5010008E501000817
:100130001448016841F00801016001681248016833
:1001400021F0FF0141F0330101601048016821F006
:100150007F4141F04C5101600D48016821F4A071CC
:1001600041F42071016000F009F8016821F4207168
:1001700041F4A071016000F001F8EDE7054A013A91
:10018000FDD1704718100240040C0140000C0140E2
:100190000C0C0140009F24000C488546AFF3008002
:1001A0000B480C490C4A002302E0D458C4500433D5
:1001B000C4188C42F9D3094A094C002301E01360AA
:1001C0000432A242FBD3FFF7B3FFFEE7005000204A
:1001D0000000002000000020E801000800000020CE
:0801E00000000020FEE7000012
:040000050800019955
:00000001FF
