:020000040800F2
:1000000000500020050200085102000851020008BB
:1000100051020008510200085102000800000000CF
:100020000000000000000000000000005102000875
:1000300051020008000000005102000851020008AF
:100040005102000851020008510200085102000844
:100050005102000851020008510200085102000834
:100060005102000851020008510200085102000824
:100070005102000851020008510200085102000814
:100080005102000851020008510200085102000804
:1000900051020008510200085102000851020008F4
:1000A00051020008510200085102000851020008E4
:1000B00051020008510200085102000851020008D4
:1000C00051020008510200085102000851020008C4
:1000D00051020008510200085102000851020008B4
:1000E00051020008510200080000000051020008FF
:1000F0005102000851020008510200085102000894
:100100005102000851020008510200085102000883
:100110005102000851020008510200085102000873
:100120005102000851020008510200085102000863
:100130002E48016841F0080101602D48016821F056
:100140007F4141F04C5101602A48016821F0FF01D4
:1001500041F0330101602848016841F47071016089
:1001600000F03FF8254801684FF0050241EA02011E
:100170002148026822F04002026000F032F84FF09D
:10018000080221EA02011C48026822F08002026093
:1001900000F027F84FF0400281EA02011648026899
:1001A00022F48072026000F01CF84FF0200201EA95
:1001B0000203002B05D04FF0200221EA020101606A
:1001C00009E00D48026822F40072026000F009F8AC
:1001D0000A480160FFE70848016841F47071016056
:1001E000FEE7074A013AFDD17047000018100240AF
:1001F000000C0140040C01400C0C014000000020E8
:10020000009F24000C488546AFF300800B480C4942
:100210000C4A002302E0D458C4500433C4188C4262
:10022000F9D3094A094C002301E013600432A242C9
:10023000FBD3FFF77DFFFEE7005000200000002009
:1002400004000020540200080400002004000020E4
:04025000FEE70000C5
:040254007500000031
:0400000508000205E8
:00000001FF
