:020000040800F2
:100000000050002081010008CD010008CD0100084A
:10001000CD010008CD010008CD010008000000005E
:10002000000000000000000000000000CD010008FA
:10003000CD01000800000000CD010008CD0100083E
:10004000CD010008CD010008CD010008CD01000858
:10005000CD010008CD010008CD010008CD01000848
:10006000CD010008CD010008CD010008CD01000838
:10007000CD010008CD010008CD010008CD01000828
:10008000CD010008CD010008CD010008CD01000818
:10009000CD010008CD010008CD010008CD01000808
:1000A000CD010008CD010008CD010008CD010008F8
:1000B000CD010008CD010008CD010008CD010008E8
:1000C000CD010008CD010008CD010008CD010008D8
:1000D000CD010008CD010008CD010008CD010008C8
:1000E000CD010008CD01000800000000CD0100088E
:1000F000CD010008CD010008CD010008CD010008A8
:10010000CD010008CD010008CD010008CD01000897
:10011000CD010008CD010008CD010008CD01000887
:10012000CD010008CD010008CD010008CD01000877
:100130000F48016841F0100101600E48016821F488
:10014000700141F4001101600B48016821F4005175
:10015000016000F008F80848016841F400510160AE
:1001600000F001F8F0E7054A013AFDD170470000C0
:1001700018100240041001400C100140009F2400A0
:100180000C488546AFF300800B480C490C4A00230D
:1001900002E0D458C4500433C4188C42F9D3094A3D
:1001A000094C002301E013600432A242FBD3FFF7A5
:1001B000BFFFFEE7005000200000002000000020EC
:1001C000D00100080000002000000020FEE7000031
:04000005080001816D
:00000001FF
